{
  "contractName": "BeverageManufacture",
  "abi": [
    {
      "inputs": [],
      "payable": false,
      "stateMutability": "nonpayable",
      "type": "constructor"
    },
    {
      "anonymous": false,
      "inputs": [
        {
          "indexed": false,
          "name": "name",
          "type": "string"
        },
        {
          "indexed": false,
          "name": "manageraddress",
          "type": "address"
        },
        {
          "indexed": false,
          "name": "msg",
          "type": "string"
        }
      ],
      "name": "RegisterMyIdentityLog",
      "type": "event"
    },
    {
      "anonymous": false,
      "inputs": [
        {
          "indexed": false,
          "name": "productid",
          "type": "string"
        },
        {
          "indexed": false,
          "name": "labelid",
          "type": "uint256"
        },
        {
          "indexed": false,
          "name": "msg",
          "type": "string"
        }
      ],
      "name": "fillLiquorLog",
      "type": "event"
    },
    {
      "constant": true,
      "inputs": [],
      "name": "GetMyCompanyName",
      "outputs": [
        {
          "name": "",
          "type": "string"
        }
      ],
      "payable": false,
      "stateMutability": "view",
      "type": "function"
    },
    {
      "constant": false,
      "inputs": [
        {
          "name": "companyName",
          "type": "string"
        }
      ],
      "name": "UpdateCompanyName",
      "outputs": [],
      "payable": false,
      "stateMutability": "nonpayable",
      "type": "function"
    },
    {
      "constant": false,
      "inputs": [
        {
          "name": "myName",
          "type": "string"
        },
        {
          "name": "everLedgerManagerContractAddress",
          "type": "address"
        }
      ],
      "name": "RegisterMyIdentity",
      "outputs": [],
      "payable": false,
      "stateMutability": "nonpayable",
      "type": "function"
    },
    {
      "constant": false,
      "inputs": [
        {
          "name": "productTrackingCode",
          "type": "string"
        },
        {
          "name": "CalciumCarbonate",
          "type": "uint256"
        },
        {
          "name": "PotassiumSorbate",
          "type": "uint256"
        },
        {
          "name": "SulfurDioxide",
          "type": "uint256"
        },
        {
          "name": "Water",
          "type": "uint256"
        },
        {
          "name": "Flavors",
          "type": "uint256"
        },
        {
          "name": "preservedFromYear",
          "type": "uint256"
        },
        {
          "name": "beverageCost",
          "type": "uint256"
        },
        {
          "name": "fromLabelVendor",
          "type": "string"
        }
      ],
      "name": "fillLiquor",
      "outputs": [],
      "payable": false,
      "stateMutability": "nonpayable",
      "type": "function"
    },
    {
      "constant": true,
      "inputs": [
        {
          "name": "productIdentityNumber",
          "type": "string"
        }
      ],
      "name": "productIDExistance",
      "outputs": [
        {
          "name": "productIDResults",
          "type": "bool"
        },
        {
          "name": "year",
          "type": "uint256"
        },
        {
          "name": "approved",
          "type": "bool"
        },
        {
          "name": "sold",
          "type": "bool"
        },
        {
          "name": "labelid",
          "type": "uint256"
        },
        {
          "name": "beverageprice",
          "type": "uint256"
        }
      ],
      "payable": false,
      "stateMutability": "view",
      "type": "function"
    }
  ],
  "bytecode": "0x608060405234801561001057600080fd5b50336000806101000a81548173ffffffffffffffffffffffffffffffffffffffff021916908373ffffffffffffffffffffffffffffffffffffffff16021790555030600160006101000a81548173ffffffffffffffffffffffffffffffffffffffff021916908373ffffffffffffffffffffffffffffffffffffffff160217905550611962806100a16000396000f3fe608060405234801561001057600080fd5b50600436106100575760003560e01c80631cd9824c1461005c5780636962769b14610117578063c469aead146101f2578063c5676ea51461038b578063d3bc3f4914610489575b600080fd5b6101156004803603602081101561007257600080fd5b810190808035906020019064010000000081111561008f57600080fd5b8201836020820111156100a157600080fd5b803590602001918460018302840111640100000000831117156100c357600080fd5b91908080601f016020809104026020016040519081016040528093929190818152602001838380828437600081840152601f19601f82011690508083019250505050505050919291929050505061050c565b005b6101f06004803603604081101561012d57600080fd5b810190808035906020019064010000000081111561014a57600080fd5b82018360208201111561015c57600080fd5b8035906020019184600183028401116401000000008311171561017e57600080fd5b91908080601f016020809104026020016040519081016040528093929190818152602001838380828437600081840152601f19601f820116905080830192505050505050509192919290803573ffffffffffffffffffffffffffffffffffffffff169060200190929190505050610691565b005b610389600480360361012081101561020957600080fd5b810190808035906020019064010000000081111561022657600080fd5b82018360208201111561023857600080fd5b8035906020019184600183028401116401000000008311171561025a57600080fd5b91908080601f016020809104026020016040519081016040528093929190818152602001838380828437600081840152601f19601f820116905080830192505050505050509192919290803590602001909291908035906020019092919080359060200190929190803590602001909291908035906020019092919080359060200190929190803590602001909291908035906020019064010000000081111561030357600080fd5b82018360208201111561031557600080fd5b8035906020019184600183028401116401000000008311171561033757600080fd5b91908080601f016020809104026020016040519081016040528093929190818152602001838380828437600081840152601f19601f820116905080830192505050505050509192919290505050610b32565b005b610444600480360360208110156103a157600080fd5b81019080803590602001906401000000008111156103be57600080fd5b8201836020820111156103d057600080fd5b803590602001918460018302840111640100000000831117156103f257600080fd5b91908080601f016020809104026020016040519081016040528093929190818152602001838380828437600081840152601f19601f8201169050808301925050505050505091929192905050506113ec565b60405180871515151581526020018681526020018515151515815260200184151515158152602001838152602001828152602001965050505050505060405180910390f35b6104916116ee565b6040518080602001828103825283818151815260200191508051906020019080838360005b838110156104d15780820151818401526020810190506104b6565b50505050905090810190601f1680156104fe5780820380516001836020036101000a031916815260200191505b509250505060405180910390f35b6000809054906101000a900473ffffffffffffffffffffffffffffffffffffffff1673ffffffffffffffffffffffffffffffffffffffff163373ffffffffffffffffffffffffffffffffffffffff16146105b1576040517f08c379a00000000000000000000000000000000000000000000000000000000081526004018080602001828103825260348152602001806118db6034913960400191505060405180910390fd5b80600290805190602001906105c7929190611835565b5061068e60028054600181600116156101000203166002900480601f0160208091040260200160405190810160405280929190818152602001828054600181600116156101000203166002900480156106615780601f1061063657610100808354040283529160200191610661565b820191906000526020600020905b81548152906001019060200180831161064457829003601f168201915b5050505050600460009054906101000a900473ffffffffffffffffffffffffffffffffffffffff16610691565b50565b6000809054906101000a900473ffffffffffffffffffffffffffffffffffffffff1673ffffffffffffffffffffffffffffffffffffffff163373ffffffffffffffffffffffffffffffffffffffff1614610736576040517f08c379a00000000000000000000000000000000000000000000000000000000081526004018080602001828103825260348152602001806118db6034913960400191505060405180910390fd5b80600460006101000a81548173ffffffffffffffffffffffffffffffffffffffff021916908373ffffffffffffffffffffffffffffffffffffffff160217905550816002908051906020019061078d929190611835565b50600460009054906101000a900473ffffffffffffffffffffffffffffffffffffffff16600360006101000a81548173ffffffffffffffffffffffffffffffffffffffff021916908373ffffffffffffffffffffffffffffffffffffffff160217905550600360009054906101000a900473ffffffffffffffffffffffffffffffffffffffff1673ffffffffffffffffffffffffffffffffffffffff166360625ad06000809054906101000a900473ffffffffffffffffffffffffffffffffffffffff166002600160009054906101000a900473ffffffffffffffffffffffffffffffffffffffff166040518463ffffffff1660e01b8152600401808473ffffffffffffffffffffffffffffffffffffffff1673ffffffffffffffffffffffffffffffffffffffff16815260200180602001806020018473ffffffffffffffffffffffffffffffffffffffff1673ffffffffffffffffffffffffffffffffffffffff1681526020018381038352858181546001816001161561010002031660029004815260200191508054600181600116156101000203166002900480156109765780601f1061094b57610100808354040283529160200191610976565b820191906000526020600020905b81548152906001019060200180831161095957829003601f168201915b5050838103825260088152602001807f626576657261676500000000000000000000000000000000000000000000000081525060200195505050505050600060405180830381600087803b1580156109cd57600080fd5b505af11580156109e1573d6000803e3d6000fd5b505050507ffb9dede3411f6f0316aa1b30ca34b46c241e6c78e9de7cfb67cef50aabe8a2146002600460009054906101000a900473ffffffffffffffffffffffffffffffffffffffff1660405180806020018373ffffffffffffffffffffffffffffffffffffffff1673ffffffffffffffffffffffffffffffffffffffff16815260200180602001838103835285818154600181600116156101000203166002900481526020019150805460018160011615610100020316600290048015610aea5780601f10610abf57610100808354040283529160200191610aea565b820191906000526020600020905b815481529060010190602001808311610acd57829003601f168201915b5050838103825260128152602001807f56656e646f7220526567697374657265642e000000000000000000000000000081525060200194505050505060405180910390a15050565b6000809054906101000a900473ffffffffffffffffffffffffffffffffffffffff1673ffffffffffffffffffffffffffffffffffffffff163373ffffffffffffffffffffffffffffffffffffffff1614610bd7576040517f08c379a00000000000000000000000000000000000000000000000000000000081526004018080602001828103825260348152602001806118db6034913960400191505060405180910390fd5b600080600360009054906101000a900473ffffffffffffffffffffffffffffffffffffffff1673ffffffffffffffffffffffffffffffffffffffff1663068a4ff28460026040518363ffffffff1660e01b815260040180806020018060200180602001848103845286818151815260200191508051906020019080838360005b83811015610c72578082015181840152602081019050610c57565b50505050905090810190601f168015610c9f5780820380516001836020036101000a031916815260200191505b50848103835285818154600181600116156101000203166002900481526020019150805460018160011615610100020316600290048015610d215780601f10610cf657610100808354040283529160200191610d21565b820191906000526020600020905b815481529060010190602001808311610d0457829003601f168201915b5050848103825260018152602001807f4c00000000000000000000000000000000000000000000000000000000000000815250602001955050505050506040805180830381600087803b158015610d7757600080fd5b505af1158015610d8b573d6000803e3d6000fd5b505050506040513d6040811015610da157600080fd5b8101908080519060200190929190805190602001909291905050508092508193505050600015156006600084815260200190815260200160002060009054906101000a900460ff16151514610e5e576040517f08c379a000000000000000000000000000000000000000000000000000000000815260040180806020018281038252601f8152602001807f4c6162656c2073686f777320616c726561647920636f6e73756d65642e2e2e0081525060200191505060405180910390fd5b6000151560078c6040518082805190602001908083835b60208310610e985780518252602082019150602081019050602083039250610e75565b6001836020036101000a038019825116818451168082178552505050505050905001915050908152602001604051809103902060009054906101000a900460ff16151514610f31576040517f08c379a000000000000000000000000000000000000000000000000000000000815260040180806020018281038252602881526020018061190f6028913960400191505060405180910390fd5b60608a8a8a8a8a604051602001808681526020018581526020018481526020018381526020018281526020019550505050505060405160208183030381529060405290506000818051906020012090508360058e6040518082805190602001908083835b60208310610fb85780518252602082019150602081019050602083039250610f95565b6001836020036101000a0380198251168184511680821785525050505050509050019150509081526020016040518091039020600001819055508660058e6040518082805190602001908083835b602083106110295780518252602082019150602081019050602083039250611006565b6001836020036101000a038019825116818451168082178552505050505050905001915050908152602001604051809103902060040181905550600160058e6040518082805190602001908083835b6020831061109b5780518252602082019150602081019050602083039250611078565b6001836020036101000a038019825116818451168082178552505050505050905001915050908152602001604051809103902060020160006101000a81548160ff021916908315150217905550600060058e6040518082805190602001908083835b6020831061112057805182526020820191506020810190506020830392506110fd565b6001836020036101000a038019825116818451168082178552505050505050905001915050908152602001604051809103902060020160016101000a81548160ff02191690831515021790555060b4860260058e6040518082805190602001908083835b602083106111a75780518252602082019150602081019050602083039250611184565b6001836020036101000a0380198251168184511680821785525050505050509050019150509081526020016040518091039020600301819055508060058e6040518082805190602001908083835b6020831061121857805182526020820191506020810190506020830392506111f5565b6001836020036101000a03801982511681845116808217855250505050505090500191505090815260200160405180910390206005018190555060016006600086815260200190815260200160002060006101000a81548160ff021916908315150217905550600160078e6040518082805190602001908083835b602083106112b65780518252602082019150602081019050602083039250611293565b6001836020036101000a038019825116818451168082178552505050505050905001915050908152602001604051809103902060006101000a81548160ff0219169083151502179055507fa69c4ceb8f00f229cd91d514f9fb4156a10e5e2bfa93463cf57be36e03f5bf478d85604051808060200183815260200180602001838103835285818151815260200191508051906020019080838360005b8381101561136d578082015181840152602081019050611352565b50505050905090810190601f16801561139a5780820380516001836020036101000a031916815260200191505b508381038252601b8152602001807f50726f6475637420686173206265656e2066696c6c6564202e2e2e000000000081525060200194505050505060405180910390a150505050505050505050505050565b60008060008060008060008090506007886040518082805190602001908083835b60208310611430578051825260208201915060208101905060208303925061140d565b6001836020036101000a038019825116818451168082178552505050505050905001915050908152602001604051809103902060009054906101000a900460ff16156116c55760016005896040518082805190602001908083835b602083106114ae578051825260208201915060208101905060208303925061148b565b6001836020036101000a03801982511681845116808217855250505050505090500191505090815260200160405180910390206004015460058a6040518082805190602001908083835b6020831061151b57805182526020820191506020810190506020830392506114f8565b6001836020036101000a038019825116818451168082178552505050505050905001915050908152602001604051809103902060020160009054906101000a900460ff1660058b6040518082805190602001908083835b602083106115955780518252602082019150602081019050602083039250611572565b6001836020036101000a038019825116818451168082178552505050505050905001915050908152602001604051809103902060020160019054906101000a900460ff1660058c6040518082805190602001908083835b6020831061160f57805182526020820191506020810190506020830392506115ec565b6001836020036101000a03801982511681845116808217855250505050505090500191505090815260200160405180910390206000015460058d6040518082805190602001908083835b6020831061167c5780518252602082019150602081019050602083039250611659565b6001836020036101000a038019825116818451168082178552505050505050905001915050908152602001604051809103902060030154965096509650965096509650506116e5565b806000806000806000849450819150809050965096509650965096509650505b91939550919395565b60606000809054906101000a900473ffffffffffffffffffffffffffffffffffffffff1673ffffffffffffffffffffffffffffffffffffffff163373ffffffffffffffffffffffffffffffffffffffff1614611795576040517f08c379a00000000000000000000000000000000000000000000000000000000081526004018080602001828103825260348152602001806118db6034913960400191505060405180910390fd5b60028054600181600116156101000203166002900480601f01602080910402602001604051908101604052809291908181526020018280546001816001161561010002031660029004801561182b5780601f106118005761010080835404028352916020019161182b565b820191906000526020600020905b81548152906001019060200180831161180e57829003601f168201915b5050505050905090565b828054600181600116156101000203166002900490600052602060002090601f016020900481019282601f1061187657805160ff19168380011785556118a4565b828001600101855582156118a4579182015b828111156118a3578251825591602001919060010190611888565b5b5090506118b191906118b5565b5090565b6118d791905b808211156118d35760008160009055506001016118bb565b5090565b9056fe4f6e6c79206c6162656c20636f6e7472616374206f776e65722063616e20706572666f726d20746865206f7065726174696f6e2e50726f64756374436f646520616c72656164792065786973747320696e207468652073797374656da165627a7a7230582090b10813a1a321c145ed213e64038eab894bf2d63840c3aa251a35cb698a18650029",
  "source": "pragma solidity >=0.5.0;\n\n// Importing EverLedgerLiquorManager contract\n/// @dev By doing this beverage manufacture call register with manager\nimport \"./EverLedgerLiquorManager.sol\";\n\n\n/// @title BeverageManufacture\n/// @author vivekganesan\n\n/* This contract controls beverage bottling plant works like filling liquor with product ID and determining cost for the\nwine product and wine ingredients information\n*/\n\ncontract BeverageManufacture {\n    // Stores address of the beverage manufacture\n    address payable beverageManufactureAddress;\n    // Stores the contract address after deployment\n    address beverageContractAddress;\n    // Name of the beverage manufacture company\n    string BeverageManufactureName;\n    /// @notice For initializing the everledger manager contract\n    /// @dev Used for registeration and provide wine information to the user\n    EverLedgerLiquorManager elm;\n    address EverLedgerManagerContractAddress;\n    // Stores wine information\n    struct BeverageInfo{\n        uint256 labelID;\n        string productID;\n        bool approved;\n        bool sold;\n        uint256 beveragePrice;\n        uint256 yearManufactured;\n        bytes32 wineIngredients;\n    }\n    // Stores beverage information against the product ID\n    mapping(string => BeverageInfo) BeverageInformation;\n    // Bool to verify whether label consumed or not\n    mapping(uint256 => bool) LabelConsumed;\n    // Bool to verify whether product ID exist or not\n    mapping(string => bool) ProductExistance;\n    // Add beverage owner address based on the contract deployment and stores the current contract address\n    constructor() public {\n        beverageManufactureAddress = msg.sender;\n        beverageContractAddress = address(this);\n    }\n    // only beverage owner can perform the operation\n    modifier onlyBeverageOwner {\n        require(msg.sender == beverageManufactureAddress, \"Only label contract owner can perform the operation.\");\n        _;\n    }\n    // Fetch the company name defined in the contract\n    /// @notice This is just a reference function to view the company name\n    function GetMyCompanyName() public view onlyBeverageOwner returns(string memory){\n        return BeverageManufactureName;\n    }\n    // Updates the company name\n    /// @notice Updating the company name needs to be re-registered with the everledger manager\n    /// because only the registered vendor can perform trading\n    /// @param companyName name of the company\n    function UpdateCompanyName(string memory companyName) public onlyBeverageOwner{\n        BeverageManufactureName = companyName;\n        RegisterMyIdentity(BeverageManufactureName, EverLedgerManagerContractAddress);\n    }\n    // Register this owner with the ever ledger manager\n    /// @notice For first time each vendor has to be registered with manager, only registered vendor can perform trading\n    /// @param myName name of the company\n    /// @param everLedgerManagerContractAddress manager contract address\n    function RegisterMyIdentity(string memory myName, address everLedgerManagerContractAddress)\n        public\n        onlyBeverageOwner{\n        // update state var `EverLedgerManagerContractAddress`\n        EverLedgerManagerContractAddress = everLedgerManagerContractAddress;\n        // updates state var `BeverageManufactureName`\n        BeverageManufactureName = myName;\n        // create an active instance of everledger manager for communication between contracts\n        elm = EverLedgerLiquorManager(EverLedgerManagerContractAddress);\n        // registration happens with manager contract object\n        elm.addVendor(beverageManufactureAddress, BeverageManufactureName, \"beverage\", beverageContractAddress);\n        emit RegisterMyIdentityLog(BeverageManufactureName, EverLedgerManagerContractAddress, \"Vendor Registered.\");\n\n    }\n    // Helps to perform updating liquor details for specific label id and product id\n    /// @param productTrackingCode product id\n    /// @param CalciumCarbonate % of component\n    /// @param PotassiumSorbate % of component\n    /// @param SulfurDioxide % of component\n    /// @param Water % of component\n    /// @param Flavors % of component\n    /// @param preservedFromYear % of component\n    /// @param beverageCost cost of the product\n    /// @param fromLabelVendor to fetch label from vendor\n    function fillLiquor(\n        string memory productTrackingCode,\n        uint256 CalciumCarbonate,\n        uint256 PotassiumSorbate,\n        uint256 SulfurDioxide,\n        uint256 Water,\n        uint256 Flavors,\n        uint256 preservedFromYear,\n        uint256 beverageCost,\n        string memory fromLabelVendor\n        )\n        public\n        onlyBeverageOwner{\n        // getting the label details\n        uint256 labelID;\n        uint256 labelCost;\n\n        (labelID, labelCost) = elm.fetchLabel(fromLabelVendor, BeverageManufactureName, \"L\");\n        // check whether the label ID and product ID exists already in the contract\n        require(LabelConsumed[labelID] == false, 'Label shows already consumed...');\n        require(ProductExistance[productTrackingCode] == false, 'ProductCode already exists in the system');\n        bytes memory agriWineIngredients = abi.encodePacked(CalciumCarbonate, PotassiumSorbate, SulfurDioxide, Water, Flavors);\n        bytes32 agriWineIngredientsHash = keccak256(agriWineIngredients);\n        BeverageInformation[productTrackingCode].labelID = labelID;\n        BeverageInformation[productTrackingCode].yearManufactured = preservedFromYear;\n        BeverageInformation[productTrackingCode].approved = true;\n        BeverageInformation[productTrackingCode].sold = false;\n        BeverageInformation[productTrackingCode].beveragePrice = beverageCost * (10*18);\n        BeverageInformation[productTrackingCode].wineIngredients = agriWineIngredientsHash;\n        LabelConsumed[labelID] = true;\n        ProductExistance[productTrackingCode] = true;\n        emit fillLiquorLog(productTrackingCode, labelID, \"Product has been filled ...\");\n    }\n    // Verify the existance of the product\n    /// @param productIdentityNumber id of the product\n    function productIDExistance(string memory productIdentityNumber) public view returns\n        (bool productIDResults, uint256 year, bool approved, bool sold, uint256 labelid, uint256 beverageprice){\n        bool result = false;\n        if(ProductExistance[productIdentityNumber]){\n            return(\n                true,\n                BeverageInformation[productIdentityNumber].yearManufactured,\n                BeverageInformation[productIdentityNumber].approved,\n                BeverageInformation[productIdentityNumber].sold,\n                BeverageInformation[productIdentityNumber].labelID,\n                BeverageInformation[productIdentityNumber].beveragePrice);\n        }\n        // return bool result, uint256 year, bool approved, bool sold, uint256 labelID, uint256 beveragePrice\n        return (result, 0, false, false, 0, 0);\n    }\n    /// @notice events\n    event RegisterMyIdentityLog(string name, address manageraddress, string msg);\n    event fillLiquorLog(string productid, uint256 labelid, string msg);\n}\n",
  "sourcePath": "/Users/vganesan/projects/sample/ethcontract/ever-ledger-liquor/contracts/BeverageManufacture.sol",
  "compiler": {
    "name": "solc",
    "version": "0.5.8+commit.23d335f2.Emscripten.clang"
  },
  "schemaVersion": "3.0.16",
  "updatedAt": "2019-12-03T13:17:21.510Z",
  "devdoc": {
    "author": "vivekganesan",
    "methods": {
      "RegisterMyIdentity(string,address)": {
        "params": {
          "everLedgerManagerContractAddress": "manager contract address",
          "myName": "name of the company"
        }
      },
      "UpdateCompanyName(string)": {
        "params": {
          "companyName": "name of the company"
        }
      },
      "fillLiquor(string,uint256,uint256,uint256,uint256,uint256,uint256,uint256,string)": {
        "params": {
          "CalciumCarbonate": "% of component",
          "Flavors": "% of component",
          "PotassiumSorbate": "% of component",
          "SulfurDioxide": "% of component",
          "Water": "% of component",
          "beverageCost": "cost of the product",
          "fromLabelVendor": "to fetch label from vendor",
          "preservedFromYear": "% of component",
          "productTrackingCode": "product id"
        }
      },
      "productIDExistance(string)": {
        "params": {
          "productIdentityNumber": "id of the product"
        }
      }
    },
    "title": "BeverageManufacture"
  },
  "userdoc": {
    "methods": {
      "GetMyCompanyName()": {
        "notice": "This is just a reference function to view the company name"
      },
      "RegisterMyIdentity(string,address)": {
        "notice": "For first time each vendor has to be registered with manager, only registered vendor can perform trading"
      },
      "UpdateCompanyName(string)": {
        "notice": "Updating the company name needs to be re-registered with the everledger manager because only the registered vendor can perform trading"
      }
    }
  }
}