{
  "contractName": "Buyer",
  "abi": [
    {
      "constant": false,
      "inputs": [
        {
          "name": "labelIDFromIOT",
          "type": "uint256"
        },
        {
          "name": "labelCost",
          "type": "uint256"
        }
      ],
      "name": "createLabel",
      "outputs": [],
      "payable": false,
      "stateMutability": "nonpayable",
      "type": "function"
    },
    {
      "anonymous": false,
      "inputs": [
        {
          "indexed": false,
          "name": "labelID",
          "type": "uint256"
        },
        {
          "indexed": false,
          "name": "message",
          "type": "string"
        }
      ],
      "name": "CreateLabelLog",
      "type": "event"
    },
    {
      "anonymous": false,
      "inputs": [
        {
          "indexed": false,
          "name": "labelID",
          "type": "uint256"
        },
        {
          "indexed": false,
          "name": "msg",
          "type": "string"
        }
      ],
      "name": "ValidateLabelExistanceLog",
      "type": "event"
    },
    {
      "anonymous": false,
      "inputs": [
        {
          "indexed": false,
          "name": "labelID",
          "type": "uint256"
        },
        {
          "indexed": false,
          "name": "message",
          "type": "string"
        }
      ],
      "name": "fetchEmptyLabelLog",
      "type": "event"
    },
    {
      "anonymous": false,
      "inputs": [
        {
          "indexed": false,
          "name": "labelID",
          "type": "uint256"
        },
        {
          "indexed": false,
          "name": "sold",
          "type": "bool"
        },
        {
          "indexed": false,
          "name": "message",
          "type": "string"
        }
      ],
      "name": "BuyLiquorLog",
      "type": "event"
    },
    {
      "constant": false,
      "inputs": [
        {
          "name": "scanQRCode",
          "type": "uint256"
        }
      ],
      "name": "buy",
      "outputs": [],
      "payable": false,
      "stateMutability": "nonpayable",
      "type": "function"
    }
  ],
  "bytecode": "0x608060405273161aa779140417c8ae9aeaae4cc6d838b5815b5f6000806101000a81548173ffffffffffffffffffffffffffffffffffffffff021916908373ffffffffffffffffffffffffffffffffffffffff1602179055506000600160006101000a81548173ffffffffffffffffffffffffffffffffffffffff021916908373ffffffffffffffffffffffffffffffffffffffff16021790555033600160006101000a81548173ffffffffffffffffffffffffffffffffffffffff021916908373ffffffffffffffffffffffffffffffffffffffff160217905550610bc8806100ea6000396000f3fe608060405234801561001057600080fd5b50600436106100365760003560e01c8063772f2bd91461003b578063d96a094a14610073575b600080fd5b6100716004803603604081101561005157600080fd5b8101908080359060200190929190803590602001909291905050506100a1565b005b61009f6004803603602081101561008957600080fd5b8101908080359060200190929190505050610416565b005b6000809054906101000a900473ffffffffffffffffffffffffffffffffffffffff1673ffffffffffffffffffffffffffffffffffffffff163373ffffffffffffffffffffffffffffffffffffffff1614610146576040517f08c379a0000000000000000000000000000000000000000000000000000000008152600401808060200182810382526037815260200180610b016037913960400191505060405180910390fd5b600015156003600084815260200190815260200160002060009054906101000a900460ff161515146101c3576040517f08c379a000000000000000000000000000000000000000000000000000000000815260040180806020018281038252602f815260200180610b6e602f913960400191505060405180910390fd5b8160026000848152602001908152602001600020600001819055506040518060400160405280600481526020017f6e756c6c0000000000000000000000000000000000000000000000000000000081525060026000848152602001908152602001600020600101908051906020019061023d9291906109be565b5060006002600084815260200190815260200160002060020160006101000a81548160ff02191690831515021790555060006002600084815260200190815260200160002060020160016101000a81548160ff02191690831515021790555060006002600084815260200190815260200160002060020160026101000a81548173ffffffffffffffffffffffffffffffffffffffff021916908373ffffffffffffffffffffffffffffffffffffffff1602179055506000600260008481526020019081526020016000206003018190555060b4810260026000848152602001908152602001600020600401819055507f6e756c6c00000000000000000000000000000000000000000000000000000000600260008481526020019081526020016000206005018190555060016003600084815260200190815260200160002060006101000a81548160ff02191690831515021790555060048290806001815401808255809150509060018203906000526020600020016000909192909190915055507f1b7c041a1f0b252bb6bddf00b11c6a8219c88ce3732e22ee685ef130f21b483582604051808281526020018060200182810382526021815260200180610ab6602191396040019250505060405180910390a15050565b61041f81610422565b50565b60026000828152602001908152602001600020600401546002600083815260200190815260200160002060030154013373ffffffffffffffffffffffffffffffffffffffff1631116104dc576040517f08c379a00000000000000000000000000000000000000000000000000000000081526004018080602001828103825260148152602001807f496e73756666696369656e742042616c616e636500000000000000000000000081525060200191505060405180910390fd5b60006104eb82600160006107d1565b905080156106c05760006002600084815260200190815260200160002060020160029054906101000a900473ffffffffffffffffffffffffffffffffffffffff1690508073ffffffffffffffffffffffffffffffffffffffff166108fc60026000868152602001908152602001600020600301549081150290604051600060405180830381858888f1935050505015801561058a573d6000803e3d6000fd5b506000809054906101000a900473ffffffffffffffffffffffffffffffffffffffff1673ffffffffffffffffffffffffffffffffffffffff166108fc60026000868152602001908152602001600020600401549081150290604051600060405180830381858888f19350505050158015610608573d6000803e3d6000fd5b5060016002600085815260200190815260200160002060020160016101000a81548160ff0219169083151502179055507f2a70a31e91c53b7c95d8b16dc1936d0431aa1931b677335d976c2040da50d2d0836002600086815260200190815260200160002060020160019054906101000a900460ff166040518083815260200182151515158152602001806020018281038252602c815260200180610a8a602c9139604001935050505060405180910390a1506107cd565b7f2a70a31e91c53b7c95d8b16dc1936d0431aa1931b677335d976c2040da50d2d0826002600085815260200190815260200160002060020160019054906101000a900460ff166040518083815260200182151515158152602001806020018281038252601c8152602001807f546869732070726f64756374206973206e6f7420666f722053414c4500000000815250602001935050505060405180910390a16040517f08c379a00000000000000000000000000000000000000000000000000000000081526004018080602001828103825260188152602001807f43616e277420627579207468652070726f647563742e2e2e000000000000000081525060200191505060405180910390fd5b5050565b60008060009054906101000a900473ffffffffffffffffffffffffffffffffffffffff1673ffffffffffffffffffffffffffffffffffffffff163373ffffffffffffffffffffffffffffffffffffffff161415610879576040517f08c379a0000000000000000000000000000000000000000000000000000000008152600401808060200182810382526036815260200180610b386036913960400191505060405180910390fd5b6003600085815260200190815260200160002060009054906101000a900460ff1680156108cc57508215156002600086815260200190815260200160002060020160009054906101000a900460ff161515145b80156108fe57508115156002600086815260200190815260200160002060020160019054906101000a900460ff161515145b1561095f577f8f07aed94679bdebadfa0ffb6dcbd5a4d29114b5e93ad19c4033f947f5f33a4284604051808281526020018060200182810382526026815260200180610a64602691396040019250505060405180910390a1600190506109b7565b7f8f07aed94679bdebadfa0ffb6dcbd5a4d29114b5e93ad19c4033f947f5f33a428460405180828152602001806020018281038252602a815260200180610ad7602a91396040019250505060405180910390a1600090505b9392505050565b828054600181600116156101000203166002900490600052602060002090601f016020900481019282601f106109ff57805160ff1916838001178555610a2d565b82800160010185558215610a2d579182015b82811115610a2c578251825591602001919060010190610a11565b5b509050610a3a9190610a3e565b5090565b610a6091905b80821115610a5c576000816000905550600101610a44565b5090565b9056fe6c6162656c494420697320617070726f76656420746f20626520636f6e73756d65642e2e2e205375636365737366756c6c7920736f6c6420616e64207472616e736665727265642074686520616d6f756e745375636365737366756c6c792075706c6f6164656420746865206c6162656c49446c6162656c4944206973206e6f7420617070726f76656420746f20626520636f6e73756d65642e2e2e204f6e6c79204c6162656c206f776e65722063616e20616363657373206f722075706461746520746865206c6162656c20646174612e2e2e4f6e6c79204e6f6e206c6162656c2076656e646f722063616e20616363657373206f72207570646174652074686520646174612e2e2e4c6162656c20494420616c7265616479206578697374732063616e6e6f742063726561746520746865206c6162656ca165627a7a723058204072a1df17d5285cc5b704cd9d9fb79423bdef518f287550a18b007a82b674ad0029",
  "source": "pragma solidity >=0.5.0;\n\n/****************************************************************************************************\n * This module is mainly focused mainly to trace back the tamper proof of the wine available in the market.\n *\n *\n * author : vivekganesan (vivekganesan01 at gmail.com)\n * version : v1.0.0\n * Has 3 contracts, parent contract will be LabelManufacture and other two contracts are `contract KingFisherBeverageVendor`\n * for beverage owner and `contract Buyer` for the buyers.\n * LabelManufacture - helps label vendor to create a unique label and this unique label once mined will be passed\n *                    to beverage owners for bottle filling.\n * KingFisherBeverageVendor - helps beverage vendor to fill the wine and push the wine ingredients into tamper proof p2p network.\n * Buyer - helps customer to buy tamper proof product.\n ***************************************************************************************************/\n\n// This contract trace back the label that is being created for the beverage liquor manufacture.\n// basically this contract have set of keys called approved and sold which determine whether the\n// product is has been `APPROVED` by beverage vendor and whether is has been `SOLD` for the end\n// user.\n\ncontract LabelManufacture {\n    // label owner address [payable since the label amount has been transferred]\n    address payable labelManufactureAddress = 0x161AA779140417C8aE9aEAae4cC6d838b5815B5f;\n    address contractOwner = address(0x0);\n    // data structure to hold the label and beverage data\n    struct labelDetails {\n        uint256 labelID;  // unique id loaded at the time of creation\n        string productID;  // to be updated by the beverage vendor\n        bool approved;  // to trace whether beverage is approved by beverage vendor\n        bool sold;  // to trace whether beverage is sold\n        address payable seller;  // beverage seller address\n        uint beveragePrice;  // price of the beverage\n        uint labelPrice;  // price for the label created\n        bytes32 wineIngredients;  // beverage ingredients as hash value\n    }\n    mapping(uint256 => labelDetails) labelInformation;  // data structure to hold all the information of label based on unique ID\n    mapping(uint256 => bool) labelExists;  // to check whether label exists or not\n    uint256[] private availableLabel;  // list of available Labels to be used by beverage company\n\n    constructor() public {\n        contractOwner = msg.sender;\n    }\n\n    function updateManufactureAddress(address payable manufactureAddress) private OnlyOwner{\n        labelManufactureAddress = manufactureAddress;\n    }\n    // MODIFIER\n    // access control: only this label company can access\n    modifier onlyLabelManufacture {\n        require(msg.sender == labelManufactureAddress, \"Only Label owner can access or update the label data...\");\n        _;\n    }\n    // access control: anyone apart from this label company can access\n    modifier OnlyNonLabelVendor {\n        require(msg.sender != labelManufactureAddress, \"Only Non label vendor can access or update the data...\");\n        _;\n    }\n    // access control: only contract owner can change the vendor address\n    modifier OnlyOwner {\n        require(msg.sender == contractOwner, \"Only contract owner update the data...\");\n        _;\n    }\n\n    // FUNCTION\n    // createLabel: create a label with all necessary details for the beverage company\n    // only label manufacture can create new label\n    event CreateLabelLog(uint256 labelID, string message);\n    function createLabel(uint256 labelIDFromIOT, uint labelCost) public\n        onlyLabelManufacture\n    {\n        require(labelExists[labelIDFromIOT] == false, \"Label ID already exists cannot create the label\");\n        labelInformation[labelIDFromIOT].labelID = labelIDFromIOT;\n        labelInformation[labelIDFromIOT].productID = \"null\";\n        labelInformation[labelIDFromIOT].approved = false;\n        labelInformation[labelIDFromIOT].sold = false;\n        labelInformation[labelIDFromIOT].seller = address(0x0);\n        labelInformation[labelIDFromIOT].beveragePrice = 0;\n        labelInformation[labelIDFromIOT].labelPrice = labelCost * (10*18);\n        labelInformation[labelIDFromIOT].wineIngredients = \"null\";\n        labelExists[labelIDFromIOT] = true;\n        availableLabel.push(labelIDFromIOT);\n        emit CreateLabelLog(labelIDFromIOT, \"Successfully uploaded the labelID\");\n    }\n\n    // validateLabelExistance: to verify whether label exists or not and only non label company can modify the state of\n    // approved (for beverage vendor) and sold (for end user validation)\n    event ValidateLabelExistanceLog(uint256 labelID, string msg);\n    function validateLabelExistance(uint256 labelID, bool approved, bool sold)\n        internal\n        OnlyNonLabelVendor\n        returns (\n            bool\n        )\n    {\n        if(labelExists[labelID] && labelInformation[labelID].approved == approved && labelInformation[labelID].sold == sold) {\n            emit ValidateLabelExistanceLog(labelID, \"labelID is approved to be consumed... \");\n            return true;\n        } else {\n            emit ValidateLabelExistanceLog(labelID, \"labelID is not approved to be consumed... \");\n            return false;\n        }\n    }\n\n    // fetchEmptyLabel: fetchs the empty label for the beverage vendor and called only by vendor\n    event fetchEmptyLabelLog(uint256 labelID, string message);\n    function fetchEmptyLabel()\n        internal\n        OnlyNonLabelVendor\n        returns (\n            uint256\n        )\n    {\n        require(availableLabel.length > 0, \"Non of the label is available... Check with label vendor to create the label\");\n        uint256 lastLabel = availableLabel[availableLabel.length - 1];\n        availableLabel.pop();\n        emit fetchEmptyLabelLog(lastLabel, \"New label Successfully Fetched... \");\n        return lastLabel;\n    }\n\n    // buy liquor: helps to validate and buy the tamper proof liquor, called by only the vendor\n    event BuyLiquorLog(uint256 labelID, bool sold, string message);\n    function buyLiquor(uint256 scanLabelID)\n        internal\n    {\n        require(msg.sender.balance > labelInformation[scanLabelID].beveragePrice + labelInformation[scanLabelID].labelPrice,\n        \"Insufficient Balance\");\n        bool verified = validateLabelExistance(scanLabelID, true, false);\n        if (verified) {\n            address payable beverageVendor = labelInformation[scanLabelID].seller;\n            beverageVendor.transfer(labelInformation[scanLabelID].beveragePrice);\n            labelManufactureAddress.transfer(labelInformation[scanLabelID].labelPrice);\n            labelInformation[scanLabelID].sold = true;\n            emit BuyLiquorLog(scanLabelID, labelInformation[scanLabelID].sold, \"Successfully sold and transferred the amount\");\n        } else {\n            emit BuyLiquorLog(scanLabelID, labelInformation[scanLabelID].sold, \"This product is not for SALE\");\n            revert(\"Can't buy the product...\");\n        }\n    }\n}\n\n// KingFisherBeverageVendor: vendor based contract which inherits the label manufacture properties for the label id's.\n// helps to update filled liquor statistics based on label ID and approves it to do sales.\ncontract KingFisherBeverageVendor is LabelManufacture {\n    address payable constant beverageManufactureAddress = 0xCA35b7d915458EF540aDe6068dFe2F44E8fa733c;\n\n    // MODIFIER\n    // access control: only this beverage company can access\n    modifier onlybeverageOwner {\n        require(msg.sender == beverageManufactureAddress, \"Only beverage manufacture can access the state...\");\n        _;\n    }\n\n    // FUNCTION\n    // helps to fill the liquor for a label ID with all the information and mark it as approved for sales.\n    event fillLiquorLog(\n        string productID,\n        uint beverageCost,\n        uint256 CalciumCarbonate,\n        uint256 PotassiumSorbate,\n        uint256 SulfurDioxide,\n        uint256 Water,\n        uint256 Flavors,\n        bytes32 agriWineIngredientsHash,\n        string message\n        );\n    function fillLiquor(\n        string memory productID,\n        uint beverageCost,\n        uint256 CalciumCarbonate,\n        uint256 PotassiumSorbate,\n        uint256 SulfurDioxide,\n        uint256 Water,\n        uint256 Flavors\n        )\n        public\n        onlybeverageOwner\n    {\n        uint256 label = fetchEmptyLabel();\n        bytes memory agriWineIngredients = abi.encodePacked(CalciumCarbonate, PotassiumSorbate, SulfurDioxide, Water, Flavors);\n        bytes32 agriWineIngredientsHash = keccak256(agriWineIngredients);\n        labelInformation[label].productID = productID;\n        labelInformation[label].approved = true;\n        labelInformation[label].seller = beverageManufactureAddress;\n        labelInformation[label].beveragePrice = beverageCost * (10*18);\n        labelInformation[label].wineIngredients = agriWineIngredientsHash;\n        emit fillLiquorLog(\n            productID,\n            labelInformation[label].beveragePrice,\n            CalciumCarbonate,\n            PotassiumSorbate,\n            SulfurDioxide,\n            Water,\n            Flavors,\n            agriWineIngredientsHash,\n            \"Succesfully filled the liquor ...\");\n    }\n}\n\n// Buyer: for end customer contract which facilicate tamper proof buying of the beverage product.\ncontract Buyer is LabelManufacture {\n    // address of the buyer\n    address payable private buyerAddress;\n\n    // sell: to buy the liquor\n    function buy(uint256 scanQRCode)\n        public\n    {\n        buyLiquor(scanQRCode);\n    }\n}\n",
  "sourcePath": "/Users/vganesan/projects/sample/ethcontract/ever-ledger-liquor/contracts/EverLedgerLiquor.sol",
  "compiler": {
    "name": "solc",
    "version": "0.5.8+commit.23d335f2.Emscripten.clang"
  },
  "schemaVersion": "3.0.16",
  "updatedAt": "2019-11-20T15:51:01.652Z",
  "devdoc": {
    "methods": {}
  },
  "userdoc": {
    "methods": {}
  }
}