{
  "contractName": "EverLedgerLiquorManager",
  "abi": [
    {
      "inputs": [],
      "payable": false,
      "stateMutability": "nonpayable",
      "type": "constructor"
    },
    {
      "anonymous": false,
      "inputs": [
        {
          "indexed": false,
          "name": "label_vendor_name",
          "type": "string"
        },
        {
          "indexed": false,
          "name": "label_vendor_address",
          "type": "address"
        }
      ],
      "name": "getLabelVendorAddressLog",
      "type": "event"
    },
    {
      "anonymous": false,
      "inputs": [
        {
          "indexed": false,
          "name": "beverage_vendor_name",
          "type": "string"
        },
        {
          "indexed": false,
          "name": "beverage_vendor_address",
          "type": "address"
        }
      ],
      "name": "getBeverageVendorAddressLog",
      "type": "event"
    },
    {
      "anonymous": false,
      "inputs": [
        {
          "indexed": false,
          "name": "vendorAddress",
          "type": "address"
        },
        {
          "indexed": false,
          "name": "vendorName",
          "type": "string"
        },
        {
          "indexed": false,
          "name": "msg",
          "type": "string"
        }
      ],
      "name": "addVendorLog",
      "type": "event"
    },
    {
      "anonymous": false,
      "inputs": [
        {
          "indexed": false,
          "name": "labelvendorname",
          "type": "string"
        },
        {
          "indexed": false,
          "name": "beveragevendorname",
          "type": "string"
        },
        {
          "indexed": false,
          "name": "labeltype",
          "type": "string"
        },
        {
          "indexed": false,
          "name": "labelcost",
          "type": "uint256"
        },
        {
          "indexed": false,
          "name": "msg",
          "type": "string"
        }
      ],
      "name": "fetchLabelLog",
      "type": "event"
    },
    {
      "anonymous": false,
      "inputs": [
        {
          "indexed": false,
          "name": "labelManufactureAddress",
          "type": "address"
        },
        {
          "indexed": false,
          "name": "labelType",
          "type": "string"
        },
        {
          "indexed": false,
          "name": "cost",
          "type": "uint256"
        },
        {
          "indexed": false,
          "name": "msg",
          "type": "string"
        }
      ],
      "name": "labelDetailsLog",
      "type": "event"
    },
    {
      "anonymous": false,
      "inputs": [
        {
          "indexed": false,
          "name": "labelid",
          "type": "uint256"
        },
        {
          "indexed": false,
          "name": "productid",
          "type": "string"
        },
        {
          "indexed": false,
          "name": "vendorname",
          "type": "string"
        },
        {
          "indexed": false,
          "name": "year",
          "type": "uint256"
        },
        {
          "indexed": false,
          "name": "beveragecost",
          "type": "uint256"
        },
        {
          "indexed": false,
          "name": "msg",
          "type": "string"
        }
      ],
      "name": "buyliquorLog",
      "type": "event"
    },
    {
      "constant": false,
      "inputs": [
        {
          "name": "label_vendor_name",
          "type": "string"
        }
      ],
      "name": "getLabelVendorAddress",
      "outputs": [
        {
          "name": "VendorAddress",
          "type": "address"
        }
      ],
      "payable": false,
      "stateMutability": "nonpayable",
      "type": "function"
    },
    {
      "constant": false,
      "inputs": [
        {
          "name": "beverage_vendor_name",
          "type": "string"
        }
      ],
      "name": "getBeverageVendorAddress",
      "outputs": [
        {
          "name": "VendorAddress",
          "type": "address"
        }
      ],
      "payable": false,
      "stateMutability": "nonpayable",
      "type": "function"
    },
    {
      "constant": false,
      "inputs": [
        {
          "name": "vendorAddress",
          "type": "address"
        },
        {
          "name": "vendorName",
          "type": "string"
        },
        {
          "name": "vendorType",
          "type": "string"
        },
        {
          "name": "contractAddress",
          "type": "address"
        }
      ],
      "name": "addVendor",
      "outputs": [],
      "payable": false,
      "stateMutability": "nonpayable",
      "type": "function"
    },
    {
      "constant": false,
      "inputs": [
        {
          "name": "fromLabelVendor",
          "type": "string"
        },
        {
          "name": "forBeverageVendor",
          "type": "string"
        },
        {
          "name": "labelType",
          "type": "string"
        }
      ],
      "name": "fetchLabel",
      "outputs": [
        {
          "name": "labelID",
          "type": "uint256"
        },
        {
          "name": "labelCost",
          "type": "uint256"
        }
      ],
      "payable": false,
      "stateMutability": "nonpayable",
      "type": "function"
    },
    {
      "constant": false,
      "inputs": [
        {
          "name": "labelManufactureAddress",
          "type": "address"
        },
        {
          "name": "labelType",
          "type": "string"
        },
        {
          "name": "cost",
          "type": "uint256"
        }
      ],
      "name": "labelDetails",
      "outputs": [],
      "payable": false,
      "stateMutability": "nonpayable",
      "type": "function"
    },
    {
      "constant": false,
      "inputs": [
        {
          "name": "labelid",
          "type": "uint256"
        },
        {
          "name": "productid",
          "type": "string"
        },
        {
          "name": "vendorname",
          "type": "string"
        }
      ],
      "name": "buyliquor",
      "outputs": [],
      "payable": true,
      "stateMutability": "payable",
      "type": "function"
    }
  ],
  "bytecode": "0x608060405234801561001057600080fd5b50336000806101000a81548173ffffffffffffffffffffffffffffffffffffffff021916908373ffffffffffffffffffffffffffffffffffffffff16021790555030600160006101000a81548173ffffffffffffffffffffffffffffffffffffffff021916908373ffffffffffffffffffffffffffffffffffffffff160217905550611d2e806100a16000396000f3fe6080604052600436106100555760003560e01c8063068a4ff21461005a57806319a55f8f146101a557806325c084f81461027d57806360625ad0146103855780638e9a4951146104a0578063bcabf494146105a8575b600080fd5b34801561006657600080fd5b506101886004803603606081101561007d57600080fd5b810190808035906020019064010000000081111561009a57600080fd5b8201836020820111156100ac57600080fd5b803590602001918460018302840111640100000000831117156100ce57600080fd5b9091929391929390803590602001906401000000008111156100ef57600080fd5b82018360208201111561010157600080fd5b8035906020019184600183028401116401000000008311171561012357600080fd5b90919293919293908035906020019064010000000081111561014457600080fd5b82018360208201111561015657600080fd5b8035906020019184600183028401116401000000008311171561017857600080fd5b9091929391929390505050610658565b604051808381526020018281526020019250505060405180910390f35b61027b600480360360608110156101bb57600080fd5b8101908080359060200190929190803590602001906401000000008111156101e257600080fd5b8201836020820111156101f457600080fd5b8035906020019184600183028401116401000000008311171561021657600080fd5b90919293919293908035906020019064010000000081111561023757600080fd5b82018360208201111561024957600080fd5b8035906020019184600183028401116401000000008311171561026b57600080fd5b90919293919293905050506109db565b005b34801561028957600080fd5b50610343600480360360208110156102a057600080fd5b81019080803590602001906401000000008111156102bd57600080fd5b8201836020820111156102cf57600080fd5b803590602001918460018302840111640100000000831117156102f157600080fd5b91908080601f016020809104026020016040519081016040528093929190818152602001838380828437600081840152601f19601f820116905080830192505050505050509192919290505050610e84565b604051808273ffffffffffffffffffffffffffffffffffffffff1673ffffffffffffffffffffffffffffffffffffffff16815260200191505060405180910390f35b34801561039157600080fd5b5061049e600480360360808110156103a857600080fd5b81019080803573ffffffffffffffffffffffffffffffffffffffff169060200190929190803590602001906401000000008111156103e557600080fd5b8201836020820111156103f757600080fd5b8035906020019184600183028401116401000000008311171561041957600080fd5b90919293919293908035906020019064010000000081111561043a57600080fd5b82018360208201111561044c57600080fd5b8035906020019184600183028401116401000000008311171561046e57600080fd5b9091929391929390803573ffffffffffffffffffffffffffffffffffffffff16906020019092919050505061115f565b005b3480156104ac57600080fd5b50610566600480360360208110156104c357600080fd5b81019080803590602001906401000000008111156104e057600080fd5b8201836020820111156104f257600080fd5b8035906020019184600183028401116401000000008311171561051457600080fd5b91908080601f016020809104026020016040519081016040528093929190818152602001838380828437600081840152601f19601f820116905080830192505050505050509192919290505050611647565b604051808273ffffffffffffffffffffffffffffffffffffffff1673ffffffffffffffffffffffffffffffffffffffff16815260200191505060405180910390f35b3480156105b457600080fd5b50610656600480360360608110156105cb57600080fd5b81019080803573ffffffffffffffffffffffffffffffffffffffff1690602001909291908035906020019064010000000081111561060857600080fd5b82018360208201111561061a57600080fd5b8035906020019184600183028401116401000000008311171561063c57600080fd5b909192939192939080359060200190929190505050611905565b005b600080600060048989604051808383808284378083019250505092505050908152602001604051809103902060010160009054906101000a900473ffffffffffffffffffffffffffffffffffffffff16905060006106f988888080601f016020809104026020016040519081016040528093929190818152602001838380828437600081840152601f19601f82011690508083019250505050505050611647565b905060008273ffffffffffffffffffffffffffffffffffffffff1663939e1ce9838989600660008873ffffffffffffffffffffffffffffffffffffffff1673ffffffffffffffffffffffffffffffffffffffff168152602001908152602001600020600001546040518563ffffffff1660e01b8152600401808573ffffffffffffffffffffffffffffffffffffffff1673ffffffffffffffffffffffffffffffffffffffff168152602001806020018381526020018281038252858582818152602001925080828437600081840152601f19601f82011690508083019250505095505050505050602060405180830381600087803b1580156107fa57600080fd5b505af115801561080e573d6000803e3d6000fd5b505050506040513d602081101561082457600080fd5b810190808051906020019092919050505090507fa68054ed7bde0da00352bf750c2b485f5b59e170cb085a8b378cf4aa0b22abbe8b8b8b8b8b8b600660008a73ffffffffffffffffffffffffffffffffffffffff1673ffffffffffffffffffffffffffffffffffffffff16815260200190815260200160002060000154604051808060200180602001806020018581526020018060200185810385528c8c82818152602001925080828437600081840152601f19601f82011690508083019250505085810384528a8a82818152602001925080828437600081840152601f19601f8201169050808301925050508581038352888882818152602001925080828437600081840152601f19601f820116905080830192505050858103825260188152602001807f4c6162656c20686173206265656e2067656e65726174656400000000000000008152506020019b50505050505050505050505060405180910390a180600660008473ffffffffffffffffffffffffffffffffffffffff1673ffffffffffffffffffffffffffffffffffffffff1681526020019081526020016000206000015494509450505050965096945050505050565b60038282604051808383808284378083019250505092505050908152602001604051809103902060009054906101000a900460ff16610a65576040517f08c379a0000000000000000000000000000000000000000000000000000000008152600401808060200182810382526035815260200180611c7e6035913960400191505060405180910390fd5b600060058383604051808383808284378083019250505092505050908152602001604051809103902060010160009054906101000a900473ffffffffffffffffffffffffffffffffffffffff1690506000806000806000808673ffffffffffffffffffffffffffffffffffffffff1663c5676ea58c8c6040518363ffffffff1660e01b815260040180806020018281038252848482818152602001925080828437600081840152601f19601f820116905080830192505050935050505060c06040518083038186803b158015610b3a57600080fd5b505afa158015610b4e573d6000803e3d6000fd5b505050506040513d60c0811015610b6457600080fd5b81019080805190602001909291908051906020019092919080519060200190929190805190602001909291908051906020019092919080519060200190929190505050809650819750829850839950849a50859b5050505050505085610c15576040517f08c379a000000000000000000000000000000000000000000000000000000000815260040180806020018281038252602e815260200180611bfb602e913960400191505060405180910390fd5b818c14610c6d576040517f08c379a0000000000000000000000000000000000000000000000000000000008152600401808060200182810382526034815260200180611c4a6034913960400191505060405180910390fd5b60011515841515148015610c85575060001515831515145b15610e085760058989604051808383808284378083019250505092505050908152602001604051809103902060000160009054906101000a900473ffffffffffffffffffffffffffffffffffffffff1673ffffffffffffffffffffffffffffffffffffffff166108fc829081150290604051600060405180830381858888f19350505050158015610d1a573d6000803e3d6000fd5b507fd7963c0d55f80395de3467a71297e8688247871c2058dc8cbb337e4f25ee2393828c8c8c8c8a876040518088815260200180602001806020018581526020018481526020018060200184810384528a8a82818152602001925080828437600081840152601f19601f8201169050808301925050508481038352888882818152602001925080828437600081840152601f19601f8201169050808301925050508481038252600f8152602001807f5468616e6b20596f7520212121212100000000000000000000000000000000008152506020019a505050505050505050505060405180910390a1610e76565b6040517f08c379a00000000000000000000000000000000000000000000000000000000081526004018080602001828103825260178152602001807f50726f64756374206973206e6f7420617070726f76656400000000000000000081525060200191505060405180910390fd5b505050505050505050505050565b60006002826040518082805190602001908083835b60208310610ebc5780518252602082019150602081019050602083039250610e99565b6001836020036101000a038019825116818451168082178552505050505050905001915050908152602001604051809103902060009054906101000a900460ff16610f6f576040517f08c379a000000000000000000000000000000000000000000000000000000000815260040180806020018281038252601e8152602001807f4c6162656c2056656e646f7220646f65736e2774206578697374732e2e2e000081525060200191505060405180910390fd5b7fa3162854d3e7fe5184b114bb1db88aed367f0eca18c691b69b3f5442b9411807826004846040518082805190602001908083835b60208310610fc75780518252602082019150602081019050602083039250610fa4565b6001836020036101000a038019825116818451168082178552505050505050905001915050908152602001604051809103902060000160009054906101000a900473ffffffffffffffffffffffffffffffffffffffff1660405180806020018373ffffffffffffffffffffffffffffffffffffffff1673ffffffffffffffffffffffffffffffffffffffff168152602001828103825284818151815260200191508051906020019080838360005b83811015611090578082015181840152602081019050611075565b50505050905090810190601f1680156110bd5780820380516001836020036101000a031916815260200191505b50935050505060405180910390a16004826040518082805190602001908083835b6020831061110157805182526020820191506020810190506020830392506110de565b6001836020036101000a038019825116818451168082178552505050505050905001915050908152602001604051809103902060000160009054906101000a900473ffffffffffffffffffffffffffffffffffffffff169050919050565b60405160200180807f6c6162656c00000000000000000000000000000000000000000000000000000081525060050190506040516020818303038152906040528051906020012083836040516020018083838082843780830192505050925050506040516020818303038152906040528051906020012014156112f3578560048686604051808383808284378083019250505092505050908152602001604051809103902060000160006101000a81548173ffffffffffffffffffffffffffffffffffffffff021916908373ffffffffffffffffffffffffffffffffffffffff1602179055508060048686604051808383808284378083019250505092505050908152602001604051809103902060010160006101000a81548173ffffffffffffffffffffffffffffffffffffffff021916908373ffffffffffffffffffffffffffffffffffffffff160217905550600160028686604051808383808284378083019250505092505050908152602001604051809103902060006101000a81548160ff02191690831515021790555061158c565b60405160200180807f62657665726167650000000000000000000000000000000000000000000000008152506008019050604051602081830303815290604052805190602001208383604051602001808383808284378083019250505092505050604051602081830303815290604052805190602001201415611487578560058686604051808383808284378083019250505092505050908152602001604051809103902060000160006101000a81548173ffffffffffffffffffffffffffffffffffffffff021916908373ffffffffffffffffffffffffffffffffffffffff1602179055508060058686604051808383808284378083019250505092505050908152602001604051809103902060010160006101000a81548173ffffffffffffffffffffffffffffffffffffffff021916908373ffffffffffffffffffffffffffffffffffffffff160217905550600160038686604051808383808284378083019250505092505050908152602001604051809103902060006101000a81548160ff02191690831515021790555061158b565b7f6a32368aacef2d132f1ab9102d71b24c9aa3d41a602df78ebcc7c9410d8dc560868686604051808473ffffffffffffffffffffffffffffffffffffffff1673ffffffffffffffffffffffffffffffffffffffff16815260200180602001806020018381038352858582818152602001925080828437600081840152601f19601f8201169050808301925050508381038252602b815260200180611cb3602b91396040019550505050505060405180910390a16040517f08c379a000000000000000000000000000000000000000000000000000000000815260040180806020018281038252602b815260200180611cb3602b913960400191505060405180910390fd5b5b7f6a32368aacef2d132f1ab9102d71b24c9aa3d41a602df78ebcc7c9410d8dc560868686604051808473ffffffffffffffffffffffffffffffffffffffff1673ffffffffffffffffffffffffffffffffffffffff16815260200180602001806020018381038352858582818152602001925080828437600081840152601f19601f82011690508083019250505083810382526025815260200180611cde602591396040019550505050505060405180910390a1505050505050565b60006003826040518082805190602001908083835b6020831061167f578051825260208201915060208101905060208303925061165c565b6001836020036101000a038019825116818451168082178552505050505050905001915050908152602001604051809103902060009054906101000a900460ff16611715576040517f08c379a0000000000000000000000000000000000000000000000000000000008152600401808060200182810382526021815260200180611c296021913960400191505060405180910390fd5b7fa62f96a2626aa0a39db84eb687e9e6a4dd4e3fe0b594a3da66c7f11606455940826005846040518082805190602001908083835b6020831061176d578051825260208201915060208101905060208303925061174a565b6001836020036101000a038019825116818451168082178552505050505050905001915050908152602001604051809103902060000160009054906101000a900473ffffffffffffffffffffffffffffffffffffffff1660405180806020018373ffffffffffffffffffffffffffffffffffffffff1673ffffffffffffffffffffffffffffffffffffffff168152602001828103825284818151815260200191508051906020019080838360005b8381101561183657808201518184015260208101905061181b565b50505050905090810190601f1680156118635780820380516001836020036101000a031916815260200191505b50935050505060405180910390a16005826040518082805190602001908083835b602083106118a75780518252602082019150602081019050602083039250611884565b6001836020036101000a038019825116818451168082178552505050505050905001915050908152602001604051809103902060000160009054906101000a900473ffffffffffffffffffffffffffffffffffffffff169050919050565b80600660008673ffffffffffffffffffffffffffffffffffffffff1673ffffffffffffffffffffffffffffffffffffffff168152602001908152602001600020600001819055508282600660008773ffffffffffffffffffffffffffffffffffffffff1673ffffffffffffffffffffffffffffffffffffffff168152602001908152602001600020600101919061199d929190611b55565b507fefe8dae96a3fb898d87490837124ea602b87c015345342b3007a19e8e0e1756b84600660008773ffffffffffffffffffffffffffffffffffffffff1673ffffffffffffffffffffffffffffffffffffffff168152602001908152602001600020600101600660008873ffffffffffffffffffffffffffffffffffffffff1673ffffffffffffffffffffffffffffffffffffffff16815260200190815260200160002060000154604051808473ffffffffffffffffffffffffffffffffffffffff1673ffffffffffffffffffffffffffffffffffffffff1681526020018060200183815260200180602001838103835285818154600181600116156101000203166002900481526020019150805460018160011615610100020316600290048015611b0a5780601f10611adf57610100808354040283529160200191611b0a565b820191906000526020600020905b815481529060010190602001808311611aed57829003601f168201915b5050838103825260198152602001807f6c6162656c207479706520686173206265656e206164646564000000000000008152506020019550505050505060405180910390a150505050565b828054600181600116156101000203166002900490600052602060002090601f016020900481019282601f10611b9657803560ff1916838001178555611bc4565b82800160010185558215611bc4579182015b82811115611bc3578235825591602001919060010190611ba8565b5b509050611bd19190611bd5565b5090565b611bf791905b80821115611bf3576000816000905550600101611bdb565b5090565b9056fe50726f6475637420494420646f656e27742065786973747320776974682062657665726167652076656e646f722e42657665726167652056656e646f7220646f65736e2774206578697374732e2e2e50726f7669646564206c6162656c20494420646f65736e2774206d617463682077697468207468652070726f647563742049442e546869732070726f64756374206973206e6f742066726f6d206120726567697374657265642062657665726167652076656e646f726f6e6c79206c6162656c206f722062657665726167652076656e646f722063616e2072656769737465722e5375636365737366756c6c792072656769737465726564206e65772076656e646f722e2e2ea165627a7a7230582041f4838b8e3f75e5b2bd336d8bdcf459e38720765a93cdfd195e89cdc062cb930029",
  "source": "pragma solidity >=0.5.0;\n\n// Importing LabelManufacture for transferring label to beverage vendor\n// Importing BeverageManufacture for transferring funds from buyer to beverage vendor\nimport \"./LabelManufacture.sol\";\nimport \"./BeverageManufacture.sol\";\n\n/// @title EverLedgerLiquorManager\n/// @author vivekganesan\n\n/* This contract works as an admin which controls the label, beverage and helps buyers to verify product */\ncontract EverLedgerLiquorManager{\n    // Stores the address of the everledger adminer\n    address everLedgerManagerAddress;\n    // Stores the address of everledger contract\n    address everLedgerManagerContractAddres;\n    // To make sure vendor exists, its mapped with bool value\n    mapping(string=>bool) labelVendorExistance;\n    // To make sure vendor exists, its mapped with bool value\n    mapping(string=>bool) beverageVendorExistance;\n    // Stores cost for each label type\n    struct labelStandardInformation{\n        uint256 labelCost;\n        string labelType;\n    }\n    // Stores the label vendor address and deployed contract address\n    struct LabelVendorInfo{\n        address payable LabelVendorAddress;\n        address LabelVendorContractAddress;\n    }\n    mapping(string => LabelVendorInfo) LabelVendorLedger;\n    // Stores the label vendor address and deployed contract address\n    struct BeverageVendorInfo{\n        address payable BeverageVendorAddress;\n        address BeverageVendorContractAddress;\n    }\n    mapping(string => BeverageVendorInfo) BeverageVendorLedger;\n    // Stores cost for each label standards\n    /// @notice helps beverage vendor to buy for the label based on the type\n    mapping(address => labelStandardInformation) labelStandard;\n    // Add everledger manager address and everledger contract address\n    constructor() public {\n        everLedgerManagerAddress = msg.sender;\n        everLedgerManagerContractAddres = address(this);\n    }\n    /// Fetch the label vendor address based on given vendor name\n    /// @notice All the registered vendor will be available here\n    /// @param label_vendor_name vendor name\n    function getLabelVendorAddress(string memory label_vendor_name) public returns (address payable VendorAddress) {\n        require(labelVendorExistance[label_vendor_name], \"Label Vendor doesn't exists...\");\n        emit getLabelVendorAddressLog(label_vendor_name, LabelVendorLedger[label_vendor_name].LabelVendorAddress);\n        return  LabelVendorLedger[label_vendor_name].LabelVendorAddress;\n    }\n    /// Fetch the beverage vendor address based on given vendor name\n    /// @notice All the registered vendor will be available here\n    /// @param beverage_vendor_name name of the vendor\n    function getBeverageVendorAddress(string memory beverage_vendor_name) public returns (address payable VendorAddress) {\n        require(beverageVendorExistance[beverage_vendor_name], \"Beverage Vendor doesn't exists...\");\n        emit getBeverageVendorAddressLog(beverage_vendor_name, BeverageVendorLedger[beverage_vendor_name].BeverageVendorAddress);\n        return  BeverageVendorLedger[beverage_vendor_name].BeverageVendorAddress;\n    }\n    // Helps each vendor to register in to everledger wine trading\n    /// @notice Only the registered vendor can perform the trading\n    // It is mandatory to register for all the vendor to perform trading\n    /// @notice Here validation of the vendor is not defined because currently they have a provision to update the registeration info anytime\n    // Todo: Need to delete the map if existing vendor calls addVendor for updates or need to create a separate update method\n    /// @param vendorAddress address of the vendor\n    /// @param vendorName name of the vendor\n    /// @param vendorType either label or beverage\n    /// @param contractAddress vendor contract address for communicating between the contracts\n    function addVendor(address payable vendorAddress, string calldata vendorName, string calldata vendorType, address contractAddress) external {\n        if(keccak256(abi.encodePacked((vendorType))) == keccak256(abi.encodePacked((\"label\")))) {\n            LabelVendorLedger[vendorName].LabelVendorAddress = vendorAddress;\n            LabelVendorLedger[vendorName].LabelVendorContractAddress = contractAddress;\n            labelVendorExistance[vendorName] = true;\n        } else if(keccak256(abi.encodePacked((vendorType))) == keccak256(abi.encodePacked((\"beverage\")))) {\n            BeverageVendorLedger[vendorName].BeverageVendorAddress = vendorAddress;\n            BeverageVendorLedger[vendorName].BeverageVendorContractAddress = contractAddress;\n            beverageVendorExistance[vendorName] = true;\n        } else {\n            emit addVendorLog(vendorAddress, vendorName, \"only label or beverage vendor can register.\");\n            revert(\"only label or beverage vendor can register.\");\n        }\n        emit addVendorLog(vendorAddress, vendorName, \"Successfully registered new vendor...\");\n    }\n    // Helps each vendor to register in to everledger wine trading\n    /// @notice Only the registered vendor can perform the trading\n    // It is mandatory to register for all the vendor to perform trading\n    /// @param fromLabelVendor name of the label vendor\n    /// @param forBeverageVendor name of the beverage vendor\n    /// @param labelType label type\n    function fetchLabel(string calldata fromLabelVendor, string calldata forBeverageVendor, string calldata labelType)\n        external\n        returns (uint256 labelID, uint256 labelCost) {\n        LabelManufacture lm = LabelManufacture(LabelVendorLedger[fromLabelVendor].LabelVendorContractAddress);\n        address buyerAddress = getBeverageVendorAddress(forBeverageVendor);\n        uint256 label = lm.GenerateLabel(buyerAddress, labelType, labelStandard[buyerAddress].labelCost);\n        emit fetchLabelLog(fromLabelVendor, forBeverageVendor, labelType, labelStandard[buyerAddress].labelCost, \"Label has been generated\");\n        return (label, labelStandard[buyerAddress].labelCost);\n    }\n    // Stores cost for the each label type based on the label vendor\n    /// @param labelManufactureAddress address of the label vendor\n    /// @param labelType type of the label like S,M,L,Xl,XXL\n    /// @param cost cost of the label in ether\n    function labelDetails(address labelManufactureAddress, string calldata labelType, uint256 cost) external{\n        labelStandard[labelManufactureAddress].labelCost = cost;\n        labelStandard[labelManufactureAddress].labelType = labelType;\n        emit labelDetailsLog(labelManufactureAddress, labelStandard[labelManufactureAddress].labelType,\n                labelStandard[labelManufactureAddress].labelCost, \"label type has been added\");\n    }\n    // Helps consumers to buy and verify the products\n    /// @param labelid scanned id of the label\n    /// @param productid scanned id of the product\n    /// @param vendorname name of the vendor\n    function buyliquor(uint256 labelid, string calldata productid, string calldata vendorname) external payable{\n        require(beverageVendorExistance[vendorname], \"This product is not from a registered beverage vendor\");\n        BeverageManufacture bm = BeverageManufacture(BeverageVendorLedger[vendorname].BeverageVendorContractAddress);\n        // return bool result, uint256 year, bool approved, uint256 labelID, uint256 beveragePrice\n        bool result;\n        uint256 yearManufactured;\n        bool approved;\n        bool sold;\n        uint256 labelId;\n        uint256 beverageCost;\n        (result, yearManufactured, approved, sold, labelId, beverageCost) = bm.productIDExistance(productid);\n        require(result, \"Product ID doen't exists with beverage vendor.\");\n        if(labelid != labelId){\n            revert(\"Provided label ID doesn't match with the product ID.\");\n        }\n        if(approved == true && sold == false){\n            BeverageVendorLedger[vendorname].BeverageVendorAddress.transfer(beverageCost);\n            emit buyliquorLog(labelId, productid, vendorname, yearManufactured, beverageCost, \"Thank You !!!!!\");\n        }\n        else{\n            revert(\"Product is not approved\");\n        }\n    }\n    /// @notice events\n    event getLabelVendorAddressLog(string label_vendor_name, address label_vendor_address);\n    event getBeverageVendorAddressLog(string beverage_vendor_name, address beverage_vendor_address);\n    event addVendorLog(address vendorAddress, string vendorName, string msg);\n    event fetchLabelLog(string labelvendorname, string beveragevendorname, string labeltype, uint256 labelcost, string msg);\n    event labelDetailsLog(address labelManufactureAddress, string labelType, uint256 cost, string msg);\n    event buyliquorLog(uint256 labelid, string productid, string vendorname, uint256 year, uint256 beveragecost, string msg);\n}",
  "sourcePath": "/Users/vganesan/projects/sample/ethcontract/ever-ledger-liquor/contracts/EverLedgerLiquorManager.sol",
  "compiler": {
    "name": "solc",
    "version": "0.5.8+commit.23d335f2.Emscripten.clang"
  },
  "schemaVersion": "3.0.16",
  "updatedAt": "2019-12-03T13:11:51.674Z",
  "devdoc": {
    "author": "vivekganesan",
    "methods": {
      "addVendor(address,string,string,address)": {
        "params": {
          "contractAddress": "vendor contract address for communicating between the contracts",
          "vendorAddress": "address of the vendor",
          "vendorName": "name of the vendor",
          "vendorType": "either label or beverage"
        }
      },
      "buyliquor(uint256,string,string)": {
        "params": {
          "labelid": "scanned id of the label",
          "productid": "scanned id of the product",
          "vendorname": "name of the vendor"
        }
      },
      "fetchLabel(string,string,string)": {
        "params": {
          "forBeverageVendor": "name of the beverage vendor",
          "fromLabelVendor": "name of the label vendor",
          "labelType": "label type"
        }
      },
      "getBeverageVendorAddress(string)": {
        "params": {
          "beverage_vendor_name": "name of the vendor"
        }
      },
      "getLabelVendorAddress(string)": {
        "params": {
          "label_vendor_name": "vendor name"
        }
      },
      "labelDetails(address,string,uint256)": {
        "params": {
          "cost": "cost of the label in ether",
          "labelManufactureAddress": "address of the label vendor",
          "labelType": "type of the label like S,M,L,Xl,XXL"
        }
      }
    },
    "title": "EverLedgerLiquorManager"
  },
  "userdoc": {
    "methods": {
      "getBeverageVendorAddress(string)": {
        "notice": "Fetch the beverage vendor address based on given vendor nameAll the registered vendor will be available here"
      },
      "getLabelVendorAddress(string)": {
        "notice": "Fetch the label vendor address based on given vendor nameAll the registered vendor will be available here"
      }
    }
  }
}