{
  "contractName": "LabelManufacture",
  "abi": [
    {
      "inputs": [],
      "payable": false,
      "stateMutability": "nonpayable",
      "type": "constructor"
    },
    {
      "anonymous": false,
      "inputs": [
        {
          "indexed": false,
          "name": "owneraddress",
          "type": "address"
        },
        {
          "indexed": false,
          "name": "contractaddress",
          "type": "address"
        },
        {
          "indexed": false,
          "name": "name",
          "type": "string"
        }
      ],
      "name": "getAllInfoLog",
      "type": "event"
    },
    {
      "anonymous": false,
      "inputs": [
        {
          "indexed": false,
          "name": "name",
          "type": "string"
        },
        {
          "indexed": false,
          "name": "manageraddress",
          "type": "address"
        },
        {
          "indexed": false,
          "name": "msg",
          "type": "string"
        }
      ],
      "name": "RegisterMyIdentityLog",
      "type": "event"
    },
    {
      "anonymous": false,
      "inputs": [
        {
          "indexed": false,
          "name": "labelType",
          "type": "string"
        },
        {
          "indexed": false,
          "name": "labelowneraddress",
          "type": "address"
        },
        {
          "indexed": false,
          "name": "cost",
          "type": "uint256"
        },
        {
          "indexed": false,
          "name": "msg",
          "type": "string"
        }
      ],
      "name": "AddLabelStandardCostLog",
      "type": "event"
    },
    {
      "anonymous": false,
      "inputs": [
        {
          "indexed": false,
          "name": "labelID",
          "type": "uint256"
        },
        {
          "indexed": false,
          "name": "result",
          "type": "bool"
        },
        {
          "indexed": false,
          "name": "msg",
          "type": "string"
        }
      ],
      "name": "LabelIDExistanceLog",
      "type": "event"
    },
    {
      "anonymous": false,
      "inputs": [
        {
          "indexed": false,
          "name": "labelid",
          "type": "uint256"
        },
        {
          "indexed": false,
          "name": "requestedvendoraddress",
          "type": "address"
        },
        {
          "indexed": false,
          "name": "cost",
          "type": "uint256"
        }
      ],
      "name": "GenerateLabelLog",
      "type": "event"
    },
    {
      "constant": true,
      "inputs": [],
      "name": "GetMyCompanyName",
      "outputs": [
        {
          "name": "",
          "type": "string"
        }
      ],
      "payable": false,
      "stateMutability": "view",
      "type": "function"
    },
    {
      "constant": false,
      "inputs": [
        {
          "name": "companyName",
          "type": "string"
        }
      ],
      "name": "UpdateCompanyName",
      "outputs": [],
      "payable": false,
      "stateMutability": "nonpayable",
      "type": "function"
    },
    {
      "constant": false,
      "inputs": [
        {
          "name": "myName",
          "type": "string"
        },
        {
          "name": "everLedgerManagerContractAddress",
          "type": "address"
        }
      ],
      "name": "RegisterMyIdentity",
      "outputs": [],
      "payable": false,
      "stateMutability": "nonpayable",
      "type": "function"
    },
    {
      "constant": false,
      "inputs": [
        {
          "name": "labelType",
          "type": "string"
        },
        {
          "name": "cost",
          "type": "uint256"
        }
      ],
      "name": "AddLabelStandardCost",
      "outputs": [],
      "payable": false,
      "stateMutability": "nonpayable",
      "type": "function"
    },
    {
      "constant": false,
      "inputs": [
        {
          "name": "requestedVendor",
          "type": "address"
        },
        {
          "name": "labelType",
          "type": "string"
        },
        {
          "name": "costOfLabel",
          "type": "uint256"
        }
      ],
      "name": "GenerateLabel",
      "outputs": [
        {
          "name": "labelID",
          "type": "uint256"
        }
      ],
      "payable": false,
      "stateMutability": "nonpayable",
      "type": "function"
    },
    {
      "constant": false,
      "inputs": [
        {
          "name": "labelIdentityNumber",
          "type": "uint256"
        }
      ],
      "name": "LabelIDExistance",
      "outputs": [
        {
          "name": "labelIDResults",
          "type": "bool"
        }
      ],
      "payable": false,
      "stateMutability": "nonpayable",
      "type": "function"
    },
    {
      "constant": false,
      "inputs": [],
      "name": "getAllInfo",
      "outputs": [
        {
          "name": "labelowneraddress",
          "type": "address"
        },
        {
          "name": "labelcontractaddress",
          "type": "address"
        },
        {
          "name": "labelvendorname",
          "type": "string"
        }
      ],
      "payable": false,
      "stateMutability": "nonpayable",
      "type": "function"
    }
  ],
  "bytecode": "0x60806040526107e360055534801561001657600080fd5b50336000806101000a81548173ffffffffffffffffffffffffffffffffffffffff021916908373ffffffffffffffffffffffffffffffffffffffff16021790555030600160006101000a81548173ffffffffffffffffffffffffffffffffffffffff021916908373ffffffffffffffffffffffffffffffffffffffff16021790555061169c806100a76000396000f3fe608060405234801561001057600080fd5b506004361061007d5760003560e01c8063b185b3c21161005b578063b185b3c2146102cf578063b18e15bd14610315578063d3bc3f49146103fe578063fe8688cc146104815761007d565b80631cd9824c146100825780636962769b1461013d578063939e1ce914610218575b600080fd5b61013b6004803603602081101561009857600080fd5b81019080803590602001906401000000008111156100b557600080fd5b8201836020820111156100c757600080fd5b803590602001918460018302840111640100000000831117156100e957600080fd5b91908080601f016020809104026020016040519081016040528093929190818152602001838380828437600081840152601f19601f820116905080830192505050505050509192919290505050610546565b005b6102166004803603604081101561015357600080fd5b810190808035906020019064010000000081111561017057600080fd5b82018360208201111561018257600080fd5b803590602001918460018302840111640100000000831117156101a457600080fd5b91908080601f016020809104026020016040519081016040528093929190818152602001838380828437600081840152601f19601f820116905080830192505050505050509192919290803573ffffffffffffffffffffffffffffffffffffffff1690602001909291905050506106cb565b005b6102b96004803603606081101561022e57600080fd5b81019080803573ffffffffffffffffffffffffffffffffffffffff1690602001909291908035906020019064010000000081111561026b57600080fd5b82018360208201111561027d57600080fd5b8035906020019184600183028401116401000000008311171561029f57600080fd5b909192939192939080359060200190929190505050610b6c565b6040518082815260200191505060405180910390f35b6102fb600480360360208110156102e557600080fd5b8101908080359060200190929190505050610d0f565b604051808215151515815260200191505060405180910390f35b61031d610e4b565b604051808473ffffffffffffffffffffffffffffffffffffffff1673ffffffffffffffffffffffffffffffffffffffff1681526020018373ffffffffffffffffffffffffffffffffffffffff1673ffffffffffffffffffffffffffffffffffffffff16815260200180602001828103825283818151815260200191508051906020019080838360005b838110156103c15780820151818401526020810190506103a6565b50505050905090810190601f1680156103ee5780820380516001836020036101000a031916815260200191505b5094505050505060405180910390f35b6104066110a6565b6040518080602001828103825283818151815260200191508051906020019080838360005b8381101561044657808201518184015260208101905061042b565b50505050905090810190601f1680156104735780820380516001836020036101000a031916815260200191505b509250505060405180910390f35b6105446004803603604081101561049757600080fd5b81019080803590602001906401000000008111156104b457600080fd5b8201836020820111156104c657600080fd5b803590602001918460018302840111640100000000831117156104e857600080fd5b91908080601f016020809104026020016040519081016040528093929190818152602001838380828437600081840152601f19601f820116905080830192505050505050509192919290803590602001909291905050506111ed565b005b6000809054906101000a900473ffffffffffffffffffffffffffffffffffffffff1673ffffffffffffffffffffffffffffffffffffffff163373ffffffffffffffffffffffffffffffffffffffff16146105eb576040517f08c379a000000000000000000000000000000000000000000000000000000000815260040180806020018281038252603481526020018061163d6034913960400191505060405180910390fd5b8060029080519060200190610601929190611517565b506106c860028054600181600116156101000203166002900480601f01602080910402602001604051908101604052809291908181526020018280546001816001161561010002031660029004801561069b5780601f106106705761010080835404028352916020019161069b565b820191906000526020600020905b81548152906001019060200180831161067e57829003601f168201915b5050505050600460009054906101000a900473ffffffffffffffffffffffffffffffffffffffff166106cb565b50565b6000809054906101000a900473ffffffffffffffffffffffffffffffffffffffff1673ffffffffffffffffffffffffffffffffffffffff163373ffffffffffffffffffffffffffffffffffffffff1614610770576040517f08c379a000000000000000000000000000000000000000000000000000000000815260040180806020018281038252603481526020018061163d6034913960400191505060405180910390fd5b80600460006101000a81548173ffffffffffffffffffffffffffffffffffffffff021916908373ffffffffffffffffffffffffffffffffffffffff16021790555081600290805190602001906107c7929190611517565b50600460009054906101000a900473ffffffffffffffffffffffffffffffffffffffff16600360006101000a81548173ffffffffffffffffffffffffffffffffffffffff021916908373ffffffffffffffffffffffffffffffffffffffff160217905550600360009054906101000a900473ffffffffffffffffffffffffffffffffffffffff1673ffffffffffffffffffffffffffffffffffffffff166360625ad06000809054906101000a900473ffffffffffffffffffffffffffffffffffffffff166002600160009054906101000a900473ffffffffffffffffffffffffffffffffffffffff166040518463ffffffff1660e01b8152600401808473ffffffffffffffffffffffffffffffffffffffff1673ffffffffffffffffffffffffffffffffffffffff16815260200180602001806020018473ffffffffffffffffffffffffffffffffffffffff1673ffffffffffffffffffffffffffffffffffffffff1681526020018381038352858181546001816001161561010002031660029004815260200191508054600181600116156101000203166002900480156109b05780601f10610985576101008083540402835291602001916109b0565b820191906000526020600020905b81548152906001019060200180831161099357829003601f168201915b5050838103825260058152602001807f6c6162656c00000000000000000000000000000000000000000000000000000081525060200195505050505050600060405180830381600087803b158015610a0757600080fd5b505af1158015610a1b573d6000803e3d6000fd5b505050507ffb9dede3411f6f0316aa1b30ca34b46c241e6c78e9de7cfb67cef50aabe8a2146002600460009054906101000a900473ffffffffffffffffffffffffffffffffffffffff1660405180806020018373ffffffffffffffffffffffffffffffffffffffff1673ffffffffffffffffffffffffffffffffffffffff16815260200180602001838103835285818154600181600116156101000203166002900481526020019150805460018160011615610100020316600290048015610b245780601f10610af957610100808354040283529160200191610b24565b820191906000526020600020905b815481529060010190602001808311610b0757829003601f168201915b5050838103825260128152602001807f56656e646f7220526567697374657265642e000000000000000000000000000081525060200194505050505060405180910390a15050565b600080600560008154809291906001019190505590508260076000838152602001908152602001600020600001819055508484600760008481526020019081526020016000206001019190610bc2929190611597565b50856007600083815260200190815260200160002060020160006101000a81548173ffffffffffffffffffffffffffffffffffffffff021916908373ffffffffffffffffffffffffffffffffffffffff16021790555060016008600083815260200190815260200160002060006101000a81548160ff0219169083151502179055507f67f6f576b0051c3ae4c1800b46674c2351b52b04b8159c4c875f6dc1056151bf816007600084815260200190815260200160002060020160009054906101000a900473ffffffffffffffffffffffffffffffffffffffff166007600085815260200190815260200160002060000154604051808481526020018373ffffffffffffffffffffffffffffffffffffffff1673ffffffffffffffffffffffffffffffffffffffff168152602001828152602001935050505060405180910390a180915050949350505050565b600080600090506008600084815260200190815260200160002060009054906101000a900460ff1615610dc557600190507f8743a52a4d6cb7eb3025a01bd68e1d6abf842a9d581dc031ce4ef061c347023d83826040518083815260200182151515158152602001806020018281038252600e8152602001807f4c6162656c206578697374732e2e000000000000000000000000000000000000815250602001935050505060405180910390a180915050610e46565b7f8743a52a4d6cb7eb3025a01bd68e1d6abf842a9d581dc031ce4ef061c347023d8382604051808381526020018215151515815260200180602001828103825260168152602001807f4c6162656c20646f65736e2774206578697374732e2e00000000000000000000815250602001935050505060405180910390a1809150505b919050565b60008060607fa62445a6bb35ec94a8935a20ddce5396f1b9bda43a32281849991e8926e873826000809054906101000a900473ffffffffffffffffffffffffffffffffffffffff16600160009054906101000a900473ffffffffffffffffffffffffffffffffffffffff166002604051808473ffffffffffffffffffffffffffffffffffffffff1673ffffffffffffffffffffffffffffffffffffffff1681526020018373ffffffffffffffffffffffffffffffffffffffff1673ffffffffffffffffffffffffffffffffffffffff16815260200180602001828103825283818154600181600116156101000203166002900481526020019150805460018160011615610100020316600290048015610fa55780601f10610f7a57610100808354040283529160200191610fa5565b820191906000526020600020905b815481529060010190602001808311610f8857829003601f168201915b505094505050505060405180910390a16000809054906101000a900473ffffffffffffffffffffffffffffffffffffffff16600160009054906101000a900473ffffffffffffffffffffffffffffffffffffffff166002829250808054600181600116156101000203166002900480601f0160208091040260200160405190810160405280929190818152602001828054600181600116156101000203166002900480156110945780601f1061106957610100808354040283529160200191611094565b820191906000526020600020905b81548152906001019060200180831161107757829003601f168201915b50505050509050925092509250909192565b60606000809054906101000a900473ffffffffffffffffffffffffffffffffffffffff1673ffffffffffffffffffffffffffffffffffffffff163373ffffffffffffffffffffffffffffffffffffffff161461114d576040517f08c379a000000000000000000000000000000000000000000000000000000000815260040180806020018281038252603481526020018061163d6034913960400191505060405180910390fd5b60028054600181600116156101000203166002900480601f0160208091040260200160405190810160405280929190818152602001828054600181600116156101000203166002900480156111e35780601f106111b8576101008083540402835291602001916111e3565b820191906000526020600020905b8154815290600101906020018083116111c657829003601f168201915b5050505050905090565b6000809054906101000a900473ffffffffffffffffffffffffffffffffffffffff1673ffffffffffffffffffffffffffffffffffffffff163373ffffffffffffffffffffffffffffffffffffffff1614611292576040517f08c379a000000000000000000000000000000000000000000000000000000000815260040180806020018281038252603481526020018061163d6034913960400191505060405180910390fd5b600360009054906101000a900473ffffffffffffffffffffffffffffffffffffffff1673ffffffffffffffffffffffffffffffffffffffff1663bcabf4946000809054906101000a900473ffffffffffffffffffffffffffffffffffffffff1684846040518463ffffffff1660e01b8152600401808473ffffffffffffffffffffffffffffffffffffffff1673ffffffffffffffffffffffffffffffffffffffff16815260200180602001838152602001828103825284818151815260200191508051906020019080838360005b8381101561137b578082015181840152602081019050611360565b50505050905090810190601f1680156113a85780820380516001836020036101000a031916815260200191505b50945050505050600060405180830381600087803b1580156113c957600080fd5b505af11580156113dd573d6000803e3d6000fd5b505050507f0d090303c8dec9fefe404748a095a891604f25b687a887ba60d091aa1a8dd520826000809054906101000a900473ffffffffffffffffffffffffffffffffffffffff168360405180806020018473ffffffffffffffffffffffffffffffffffffffff1673ffffffffffffffffffffffffffffffffffffffff16815260200183815260200180602001838103835286818151815260200191508051906020019080838360005b838110156114a2578082015181840152602081019050611487565b50505050905090810190601f1680156114cf5780820380516001836020036101000a031916815260200191505b508381038252601b8152602001807f4164646564206c6162656c2074797065207769746820636f73742e00000000008152506020019550505050505060405180910390a15050565b828054600181600116156101000203166002900490600052602060002090601f016020900481019282601f1061155857805160ff1916838001178555611586565b82800160010185558215611586579182015b8281111561158557825182559160200191906001019061156a565b5b5090506115939190611617565b5090565b828054600181600116156101000203166002900490600052602060002090601f016020900481019282601f106115d857803560ff1916838001178555611606565b82800160010185558215611606579182015b828111156116055782358255916020019190600101906115ea565b5b5090506116139190611617565b5090565b61163991905b8082111561163557600081600090555060010161161d565b5090565b9056fe4f6e6c79206c6162656c20636f6e7472616374206f776e65722063616e20706572666f726d20746865206f7065726174696f6e2ea165627a7a72305820b8e6a18af5a4284e6f3cb1b6602ea0c09fb70bedd9694e8eac6786f24217a7650029",
  "source": "pragma solidity >=0.5.0;\n\n// Importing EverLedgerLiquorManager contract\n/// @dev By doing this label manufacture call register with manager\nimport \"./EverLedgerLiquorManager.sol\";\n\n/// @title LabelManufacture\n/// @author vivekganesan\n\n/* This contract controls label ID generation, initially the label ID will be loaded with some default value\nthen for every `fetch label` request, the label ID will be incremented with `1` (numeric operation)\nbest practice: Need to randomize the intial labelID number, to prevent the prediction of labelID by some third party (priority low) */\n\ncontract LabelManufacture{\n    // Stores the address of the label manufacture\n    /// @dev This will be used for registeration and for payment transfer\n    address payable LabelOwnerAddress;\n    // Stores the contract address after deployment\n    address LabelContractAddress;\n    // Name of the label manufacture company\n    string LabelManufactureName;\n    /// @notice For initializing the everledger manager contract\n    /// @dev Used for registeration and provide selling standards like cost\n    EverLedgerLiquorManager elm;\n    address EverLedgerManagerContractAddress;\n    /// Stores label information like cost and vendor who used this label for each unique label ID\n    struct labelInfo{\n        uint256 labelCost;\n        string labelType;\n        address usedByVendor;\n    }\n    /// @notice This will be initial label identifier counter, which acts as a label ID\n    /// @dev This will get auto incremented for each request to a label\n    uint256 labelCounter = 2019;\n    // This holds all the label cost based on the label type\n    /// @notice Label cost should be registered with everledget manager contract for vendor to be paid\n    /// @dev Make sure cost has been added to manager contract and its been approved\n    mapping(string => uint256) labelCost;\n    /// This holds all the label information for the created Label ID\n    /// @dev mapping for label ID => labelInfo(labelCost, usedByVendor)\n    mapping(uint256 => labelInfo) labelInformation;\n    // This represent boolean representation for each unique label ID existence\n    mapping(uint256 => bool) labelExists;\n    // Add label owner address based on the contract deployment and stores the current contract address\n    constructor() public{\n        LabelOwnerAddress = msg.sender;\n        LabelContractAddress = address(this);\n    }\n    // Only label address can perform some operations\n    modifier onlyLabelOwner{\n        require(msg.sender == LabelOwnerAddress, \"Only label contract owner can perform the operation.\");\n        _;\n    }\n    // Fetch the company name defined in the contract\n    /// @notice This is just a reference function to view the company name\n    function GetMyCompanyName() public view onlyLabelOwner returns(string memory){\n        return LabelManufactureName;\n    }\n    // Updates the company name\n    /// @notice Updating the company name needs to be re-registered with the everledger manager\n    /// because only the registered vendor can perform trading\n    /// @param companyName name of the company\n    function UpdateCompanyName(string memory companyName) public onlyLabelOwner{\n        LabelManufactureName = companyName;\n        RegisterMyIdentity(LabelManufactureName, EverLedgerManagerContractAddress);\n    }\n    // Register this owner with the ever ledger manager\n    /// @notice For first time each vendor has to be registered with manager, only registered vendor can perform trading\n    /// @param myName name of the company\n    /// @param everLedgerManagerContractAddress manager contract address\n    function RegisterMyIdentity(string memory myName, address everLedgerManagerContractAddress)\n        public\n        onlyLabelOwner{\n        // update state var `EverLedgerManagerContractAddress`\n        EverLedgerManagerContractAddress = everLedgerManagerContractAddress;\n        // updates state var `LabelManufactureName`\n        LabelManufactureName = myName;\n        // create an active instance of everledger manager for communication between contracts\n        elm = EverLedgerLiquorManager(EverLedgerManagerContractAddress);\n        // registration happens with manager contract object\n        elm.addVendor(LabelOwnerAddress, LabelManufactureName, \"label\", LabelContractAddress);\n        emit RegisterMyIdentityLog(LabelManufactureName, EverLedgerManagerContractAddress, \"Vendor Registered.\");\n    }\n    // Add label cost and updates the manager with label type and cost\n    /// @notice Based on the label type each consuming vendor has to tranfer the cost\n    // If the cost and label type is not registered with the manager then tranfer of ether might be lost\n    // so make sure to update the label cost for each label type\n    /// @param labelType type of the label\n    /// @param cost cost for the label in ether\n    function AddLabelStandardCost(string memory labelType, uint256 cost) public onlyLabelOwner{\n        elm.labelDetails(LabelOwnerAddress, labelType, cost);\n        emit AddLabelStandardCostLog(labelType, LabelOwnerAddress, cost, \"Added label type with cost.\");\n    }\n    // Generate unique label for the buyers\n    /// @notice Generating unique label invloves initial value derived from the initial label counter\n    /// @dev Currently this value is hard coded, but it can controlled from manager itself\n    // The idea is to regerate unique label ID value by increment the value when ever request comes\n    // and it will be uploaded to storage with mapping label ID with vendor address who requested for the label\n    // so this remain always unique even if some other vendor has the same label ID\n    /// @param requestedVendor vendor name who is requesting label\n    /// @param labelType type of label needed\n    /// @param costOfLabel cost for that type of label\n    function GenerateLabel(address requestedVendor, string calldata labelType, uint256 costOfLabel) external returns (uint256 labelID){\n        // increment label counter for label ID\n        uint256 updatedLabel = labelCounter++;\n        // update the label ID with cost and vendor who requested\n        // cost: will be fetch from manager (refer manager contract)\n        labelInformation[updatedLabel].labelCost = costOfLabel;\n        labelInformation[updatedLabel].labelType = labelType;\n        labelInformation[updatedLabel].usedByVendor = requestedVendor;\n        labelExists[updatedLabel] = true;\n        emit GenerateLabelLog(updatedLabel, labelInformation[updatedLabel].usedByVendor, labelInformation[updatedLabel].labelCost);\n        return updatedLabel;\n    }\n    // To check whether label ID exists in the system\n    /// @param labelIdentityNumber label id number\n    function LabelIDExistance(uint256 labelIdentityNumber) public returns (bool labelIDResults){\n        bool result = false;\n        if(labelExists[labelIdentityNumber]){\n            result = true;\n            emit LabelIDExistanceLog(labelIdentityNumber, result, \"Label exists..\");\n            return result;\n        }\n        emit LabelIDExistanceLog(labelIdentityNumber, result, \"Label doesn't exists..\");\n        return result;\n    }\n    // Only for testing the stored data.\n    function getAllInfo() public returns(address labelowneraddress, address labelcontractaddress, string memory labelvendorname) {\n        emit getAllInfoLog(LabelOwnerAddress, LabelContractAddress, LabelManufactureName);\n        return (LabelOwnerAddress, LabelContractAddress, LabelManufactureName);\n    }\n    /// @notice events\n    event getAllInfoLog(address owneraddress, address contractaddress, string name);\n    event RegisterMyIdentityLog(string name, address manageraddress, string msg);\n    event AddLabelStandardCostLog(string labelType, address labelowneraddress, uint256 cost, string msg);\n    event LabelIDExistanceLog(uint256 labelID, bool result, string msg);\n    event GenerateLabelLog(uint256 labelid, address requestedvendoraddress, uint256 cost);\n}\n",
  "sourcePath": "/Users/vganesan/projects/sample/ethcontract/ever-ledger-liquor/contracts/LabelManufacture.sol",
  "compiler": {
    "name": "solc",
    "version": "0.5.8+commit.23d335f2.Emscripten.clang"
  },
  "schemaVersion": "3.0.16",
  "updatedAt": "2019-12-03T13:11:51.683Z",
  "devdoc": {
    "author": "vivekganesan",
    "methods": {
      "AddLabelStandardCost(string,uint256)": {
        "params": {
          "cost": "cost for the label in ether",
          "labelType": "type of the label"
        }
      },
      "GenerateLabel(address,string,uint256)": {
        "params": {
          "costOfLabel": "cost for that type of label",
          "labelType": "type of label needed",
          "requestedVendor": "vendor name who is requesting label"
        }
      },
      "LabelIDExistance(uint256)": {
        "params": {
          "labelIdentityNumber": "label id number"
        }
      },
      "RegisterMyIdentity(string,address)": {
        "params": {
          "everLedgerManagerContractAddress": "manager contract address",
          "myName": "name of the company"
        }
      },
      "UpdateCompanyName(string)": {
        "params": {
          "companyName": "name of the company"
        }
      }
    },
    "title": "LabelManufacture"
  },
  "userdoc": {
    "methods": {
      "GetMyCompanyName()": {
        "notice": "This is just a reference function to view the company name"
      },
      "RegisterMyIdentity(string,address)": {
        "notice": "For first time each vendor has to be registered with manager, only registered vendor can perform trading"
      },
      "UpdateCompanyName(string)": {
        "notice": "Updating the company name needs to be re-registered with the everledger manager because only the registered vendor can perform trading"
      }
    }
  }
}